:0400000080313228F1
:100008007E14803120007F08F1008B130B1D2228FD
:100018007A08803AF00080307002031D15280630F7
:100028007902031C1D288031A3208031F901FA01CF
:1000380021280130F9070030FA3D0B118B1C2C28C0
:1000480023009E1C242841309A008B1020008C1617
:100058008B1771082000FF007E10090080313428BA
:10006800F601F701F801F901FA012000A001A10148
:10007800A2017E10200080314128723021009900B1
:10008800950123008C0180308E00203021008C00E7
:1000980008308E00203024008C0020008C018E0156
:1000A8001D3021009D0090309E000C303D00A200C4
:1000B8000C30250093000A30910040302C00980045
:1000C8009701023020009C009A0199309B001C1572
:1000D800FF30A3000030A4008031912080318031AE
:1000E800AF20803180317A208031792811303D006D
:1000F800A1001030A00021008E140E1424009417C3
:100108002830950096013230920094019516161405
:100118002000911D080091118C288B0180308B00E4
:100128000730210095002000950110303C00900018
:1001380021008C0120008C01A0308B0008000310E6
:1001480020008C1E0314031CAC2820008C16080009
:1001580020008C12080021000C168C1204303C0080
:0601680090000B160800D8
:020000040001F9
:04000E0084C9FBFAAC
:00000001FF
