:040000008031202803
:100008007E14803120007F08F0008B130B1D102810
:100018008031B62080310B118B1C1A2823009E1CBE
:10002800122841309A008B1020008C168B1770080C
:100038002000FF007E100900803122287E10200059
:1000480080312628723021009900950123008C0107
:1000580080308E00203021008C0008308E00203047
:1000680024008C0020008C018E011D3021009D0091
:1000780090309E000C303D00A2000C30250093000B
:100088000A30910040302C0098009701023020007F
:100098009C009A0199309B001C15FF30A400003089
:1000A800A5008031922080318031C220803180319A
:1000B800A420803180317220803172082000A50090
:1000C8007108A4002508FC002408FB00FC36FB0C82
:1000D800FC36FB0C7B08250091005E2821009D144E
:1000E8009D1874281C08F300F4017308F9007408BB
:1000F800FA001B08F300F4017908F600F50173080B
:100108007504F70074087604F8007708F900780891
:10011800FA007A08F2007908F10008008B018030B3
:100128008B000730210095002000950110303C001D
:10013800900021008C0120008C01A0308B00080069
:1001480021000E1240303D00A40023009E019E169F
:100158001E121E1519309B009C019F011F129F152E
:100168009D170800031020008C1E0314031CBF28D1
:1001780020008C16080020008C12080021000C16A4
:0C0188008C1204303C0090000B160800A4
:020000040001F9
:04000E00C4C9FBDA8C
:00000001FF
