:0400000080313228F1
:100008007E14803120007F08F1008B130B1D2228FD
:100018007B08803AF00080307002031D15280B30F1
:100028007A02031C1D288031D4208031FA01FB019B
:1000380021280130FA070030FB3D0B118B1C2C28BE
:1000480023009E1C242841309A008B1020008C1617
:100058008B1771082000FF007E10090080313428BA
:10006800FA01FB017E10200080313A28723021000D
:100078009900950123008C0180308E0020302100EA
:100088008C0008308E00203024008C0020008C0169
:100098008E011D3021009D0090309E000C303D00E7
:1000A800A2000C30250093000A30910040302C004B
:1000B80098009701023020009C009A0199309B001B
:1000C8001C15FF30A8000030A9008031C220803103
:1000D8008031E02080318031AE20803180318B202A
:1000E800803173082000A9007208A8002908A70019
:1000F8002808A600A736A60CA736A60C26082500B1
:100108009100553023009A009E18722888282100F3
:100118009D149D188D281C08F400F5017408200012
:10012800A0007508A10021001B08F400F5012000BB
:100138002008F700F60174087604F80075087704BB
:10014800F9007808A0007908A1002108F300200828
:10015800F200080021000E1223009D1714303D0004
:10016800A40023009E019E161E121E159E17CF3056
:100178009B009C019F011F129F1508008B01803076
:100188008B000730210095002000950110303C00BD
:10019800900021008C0120008C01A0308B00080009
:1001A800031020008C1E0314031CDD2820008C166D
:1001B800080020008C12080021000C168C12043054
:0801C8003C0090000B1608003A
:020000040001F9
:04000E00C4C9FBDA8C
:00000001FF
