:0400000080313228F1
:100008007E14803120007F08F1008B130B1D2228FD
:100018007B08803AF00080307002031D15280630F6
:100028007A02031C1D288F3119278031FA01FB0140
:1000380021280130FA070030FB3D0B118B1C2C28BE
:1000480023009E1C242841309A008B1020008C1617
:100058008B1771082000FF007E10090080313428BA
:10006800FA01FB012100C201C3017E102000813189
:10007800DC292100AF0120006C08F2006D08F300B4
:100088006E08F4000030F5000030F6000030F7008C
:1000980087314A2780310318652820006C08F20050
:1000A8006D08F3006E08F4008F3111278031720853
:1000B8002000EC007308ED007408EE002100AF0189
:1000C800AF0AFA302000A0002230A1003E30A20082
:1000D8006C08A3006D08A4006E08A50084311D24D7
:1000E800803120002008EC002108ED002208EE00F5
:1000F8006C08E3006D08E4006E08E500863101260F
:100108008031200063082100A0002000640821003D
:10011800A100200065082100A20020006C08210031
:10012800A30020006D082100A40020006E08210013
:10013800A5008F319E278031210020082000EC0087
:10014800210021082000ED00210022082000EE00F7
:100158000030A0008030A1004030A2006C08A3004D
:100168006D08A4006E08A50084311D24803120008C
:100178002008EC002108ED002208EE000030F20013
:100188000030F3004030F4006C08F5006D08F6000C
:100198006E08F70087314A2780310318012900309B
:1001A8002100A0000030A1004030A20020006C080F
:1001B8002100A30020006D082100A40020006E0883
:1001C8002100A5008F319E278031210020082000C2
:1001D800EC00210021082000ED0021002208200069
:1001E800EE0021002F08031DFB280130FC280030F9
:1001F8002000EF006F082100AF000030F2008030CF
:10020800F3003F30F40020006C08F5006D08F6009C
:100218006E08F70087314A278031031834290030E7
:100228002000C0000030C1004030C2006C08F2005D
:100238006D08F3006E08F4008F31112780317208C1
:100248002000C3007308C4007408C5008331272345
:10025800803120004008EC004108ED004208EE0023
:1002680020006C08A0006D08A1006E08A2006C08B0
:10027800A3006D08A4006E08A50084311D248031F8
:10028800200020082100AC00200021082100AD003A
:10029800200022082100AE002C082000CD002100FB
:1002A8002D082000CE0021002E082000CF000F309E
:1002B800D0009030D1000330D2000030D300863116
:1002C800EA26803120004D082100A60020004E08B3
:1002D8002100A70020004F082100A80004302000BA
:1002E800D2000030D3000030D0009030D10021007F
:1002F8002C082000CD0021002D082000CE00210070
:100308002E082000CF008631EA26803120004D08D3
:10031800B3004E08B4004F08B5002100260820009D
:10032800B000210027082000B10021002808200083
:10033800B2008431D1248031200030082100A90086
:10034800200031082100AA00200032082100AB005B
:1003580029082000A00021002A082000A10021006F
:100368002B082000A2006C08A3006D08A4006E08EA
:10037800A50084311D24803120002008EC002108CC
:10038800ED002208EE0021002F08031908002000C4
:100398006C08F2006D08F3006E08F4008F31112725
:1003A80072082000EC007308ED007408EE000800E5
:1003B800723021009900950123008C0180308E0055
:1003C800203021008C0008308E00203024008C0062
:1003D80020008C018E011D3021009D0090309E0070
:1003E8000C303D00A2000C30250093000A3091002B
:1003F80040302C0098009701023020009C009A01A0
:1004080099309B001C15FF302100BA000030BB005A
:100418008F31252781318F31092781318F31372756
:1004280081318731F92781318F317B2781317308F9
:100438002100BB007208BA00FA302000A0008E30FC
:10044800A1003C30A20021003F082000A3002100A9
:1004580040082000A400210041082000A5008431A4
:100468001D248131200020082100B400200021082B
:100478002100B500200022082100B6003408200021
:10048800EC00210035082000ED002100360820008E
:10049800EE0080313D20813120006C082100B7003A
:1004A80020006D082100B80020006E082100B90066
:1004B80000302000C000FE30C1004230C2000030D1
:1004C800A000FE30A1004230A20021003708200021
:1004D800A300210038082000A400210039082000CA
:1004E800A50084311D24813120002008C300210883
:1004F800C4002208C5008331272381312000400829
:100508002100BC00200041082100BD002000420855
:100518002100BE003B08F5003A08F4000A30F2005A
:100528000030F3008F31CC27813173082000A100FF
:100538007208A0008F314B27813120002008C000AD
:100548002108C1002208C20021003F082000C30082
:10055800210040082000C400210041082000C500F7
:10056800833127238131200040082100BF0020006B
:1005780041082100C000200042082100C1003F08B6
:10058800F2004008F3004108F4000030F500B430F0
:10059800F6004330F70087314A278131031CDB2AF4
:1005A80000302100BF000030C0000030C100210031
:1005B8003C082000B30021003D082000B4002100C1
:1005C8003E082000B5000030B0000030B1004030D7
:1005D800B2008431D124813120003008C3003108B1
:1005E800C4003208C5000030C000A030C10040304F
:1005F800C20083312723813120004008CD00410803
:10060800CE004208CF0085317A25813120004D087F
:100618002500910021003C082000CD0021003D0864
:100628002000CE0021003E082000CF0085317A2529
:10063800813120004D0822009900553023009A008E
:100648009E18182A242B20004008C6004108C7001D
:100658004208C8000310470D480DC9004908CC00DE
:100668004308C6004408C7004508C8000310470DE2
:10067800480DC9004908CB004C0803194F2B4B08FB
:100688004C020318562B4C03FF3A4B07C60019308F
:100698004602031C562B4308C0004408C100450805
:1006A800C20008004B08031908004C084B02031845
:1006B800652B4B03FF3A4C07C60019304602031856
:1006C80008000630C6004608CA00C21BCA17C51B68
:1006D8004A17C117FF30C005FF30C1050030C205F9
:1006E800C417FF30C305FF30C4050030C5054B08EB
:1006F8004C020318A12B0130C335C40DC50D890B5D
:10070800802B0130CB024B084C0603199C2B01307F
:10071800CA024A08073903199C2B7F2B0130C236BD
:10072800C10CC00C890B932B0130C6004608CC07BE
:100738004C084B060319C62B922B4C084B02031886
:10074800C62B0130C035C10DC20D890BA62B013057
:10075800CC024B084C060319C22B0130CA024A08C6
:1007680007390319C22BA52B0130C536C40CC30C9D
:10077800890BB92B0130C6004608CB074C084B063D
:10078800031DB82BCA1FD82BFF30C006FF30C10687
:10079800FF30C2060130C007003003180130C1071E
:1007A800003003180130C2074A1FEA2BFF30C30686
:1007B800FF30C406FF30C5060130C30700300318F8
:1007C8000130C407003003180130C507CA014008CA
:1007D800C3074108C43D4208C53DC51F052CFF306D
:1007E800C306FF30C406FF30C5060130C30700301A
:1007F80003180130C407003003180130C507CA01C7
:10080800CA0A4308F2004408F3004508F4004C08FB
:10081800C6004608F5004A08C7004708F6008631B2
:10082800862672082000C0007308C1007408C20040
:10083800080020002008A6002108A7002208A80018
:100848000310270D280DA9002908AA002A08031D4E
:10085800342C0030A0000030A1000030A2000800B5
:100868002308A6002408A7002508A8000310270DC0
:10087800280DA9002908AF002F08031D4A2C0030B5
:10088800A0000030A1000030A20008002F087B3E25
:10089800A6002608AA072008A6002108A700220803
:1008A800A8001030A836A70CA60C890B562C2608D1
:1008B800A9002908AF002308A6002408A7002508D6
:1008C800A8001030A836A70CA60C890B662C2608A1
:1008D800A9002908AF068030A6002608AF05A11791
:1008E800A417FF30A305FF30A4050030A50500308C
:1008F800AB000030AC000030AD000730A600260881
:10090800AE00201C8D2C2308AB072408AC3D25081D
:10091800AD3D0130A236A10CA00C890B8E2C013004
:10092800A335A40DA50D890B942C0130AE02031D2F
:10093800852C0930A6002608AE00201CA92C230807
:10094800AB072408AC3D2508AD3D0130A236A10C0B
:10095800A00C890BAA2C0130AD36AC0CAB0C890B62
:10096800B02C0130AE02031DA12C2B08F2002C087C
:10097800F3002D08F4002A08A6002608F5002F0821
:10098800A7002708F6008631862672082000A000F6
:100998007308A1007408A200080020003308B600FC
:1009A8003408B7003508B8000310370D380DB90002
:1009B8003908BE003E08031DE82C0030B0000030A6
:1009C800B1000030B20008003008B6003108B700A6
:1009D8003208B8000310370D380DB9003908BF00C8
:1009E8003F08031DFE2C0030B0000030B10000307D
:1009F800B20008000030BB000030BC000030BD0071
:100A080089303F07B6003608BE023308B6003408FE
:100A1800B7003508B8001030B836B70CB60C890BDB
:100A2800102D3608B9003908BF003008B600310863
:100A3800B7003208B8001030B836B70CB60C890BBE
:100A4800202D3608B9003908BF068030B6003608B0
:100A5800BF05B417FF30B305FF30B4050030B50546
:100A6800B117FF30B005FF30B1050030B2051830BE
:100A7800B6003608BA000130BB35BC0DBD0D890B78
:100A8800402D32083502031D4F2D31083402031D55
:100A98004F2D30083302031C582D3008B30231089B
:100AA800B43B3208B53B3B140130B335B40DB50D3A
:100AB800890B592D0130BA02031D3F2D3B08F20066
:100AC8003C08F3003D08F4003E08B6003608F5007F
:100AD8003F08B7003708F6008631862672082000DE
:100AE800B0007308B1007408B200080020004D0877
:100AF800D1004E08D2004F08D3000310520D530DF9
:100B0800D4005408DA005A08031D932D0030D00091
:100B18000030CF000030CE000030CD0008004D0876
:100B2800D1004E08D2004F08D3001730D336D20C6C
:100B3800D10C890B9A2D5108D4005408D500CE1732
:100B4800FF30CD05FF30CE050030CF054D08D6006B
:100B58004E08D7004F08D800D9018E30DA02DA1FC4
:100B6800D12D5A08803A8F3E0318C32D0030D0008B
:100B78000030CF000030CE000030CD00080001303A
:100B8800D936D80CD70CD60C890BC42D0130D1001E
:100B98005108DA070319EA2DC32D18305A02031C2D
:100BA800E72D0030D0000030CF000030CE000030FC
:100BB800CD0008000130D635D70DD80DD90D890BD9
:100BC800DF2D0130DA025A08031DDE2D55080319FE
:100BD800F82DD609D709D809D909D60A0319D70A89
:100BE8000319D80A0319D90A5908D0005808CF00A0
:100BF8005708CE005608CD00080020006308F20010
:100C08006408F3006508F4006A30E6006608F50039
:100C18008731C42786312000EB1F332E6308F2008A
:100C28006408F3006508F4000030F5000030F600B1
:100C38000030F70087314A27863103182B2E003001
:100C48002000E3008030E400BF30E50008000030F9
:100C58002000E3000030E4000030E5000800003028
:100C68006B02153003196A02031808006308CD00E7
:100C78006408CE006508CF0085317A2586312000CA
:100C88005008DE004F08DD004E08DC004D08DB0090
:100C980087318727863120005B08E7005C08E80079
:100CA8005D08E9006308F2006408F3006508F400D1
:100CB8006708F5006808F6006908F70087314A27D1
:100CC800863103187E2E00302000C0008030C1001D
:100CD800BF30C2006708C3006808C4006908C500BF
:100CE8008331272320004008E3004108E40042083C
:100CF800E500080020006708E3006808E4006908C8
:100D0800E5000800750803198E2E74087304720430
:100D1800031D9F2E0030F2000030F3000030F40075
:100D280008000130F7007708F5070130F436F30CB6
:100D3800F20C890B9A2EFE3074050319B82E952EE5
:100D48000130F7007708F5070130F2070030031883
:100D58000130F307003003180130F4070130F4368E
:100D6800F30CF20C890BB32EFF3074050319C52E52
:100D7800A42E0130F5020130F235F30DF40D890B84
:100D8800C02EF31BCB2E023075020318BD2E75182A
:100D9800D32EFF30F2057F30F305FF30F405031042
:100DA800F50C7508F700F801F9011030F735F80D62
:100DB800F90D890BDA2E7708F2047808F30479081C
:100DC800F404760803190800F417080020005308F3
:100DD800F3005208F2000330F4000030F5008F31C0
:100DE8006027863120005008720784005108733D3F
:100DF8008500003FD400013FD500023FD6005208CD
:100E080053040319432FFF30D207FF30D33D530853
:100E1800F3005208F2000330F4000030F5008F317F
:100E28006027863120005008720784005108733DFE
:100E38008500003FC000013FC100023FC2005408C6
:100E4800A0005508A1005608A2004D08A3004E08AE
:100E5800A4004F08A50084311D24863120002008F5
:100E6800C3002108C4002208C50083312723863126
:100E780020004008D4004108D5004208022F540839
:100E8800CD005508CE005608CF000800F41F612F8A
:100E980072092000A0007309A1007409A200A00A29
:100EA8000319A10A0319A20A00302007F200003032
:100EB800213DF3008030223DF400F71F782F75099B
:100EC8002000A0007609A1007709A200A00A031952
:100ED800A10A0319A20A00302007F5000030213DBD
:100EE800F6008030223DF7008030F4068030F706A7
:100EF80077087402031D080076087302031D0800B2
:100F08007508720208002000E2018E30DF005F08D9
:100F1800E100DE1F9C2FDB09DC09DD09DE09DB0AA5
:100F28000319DC0A0319DD0A0319DE0AE201E20AE1
:100F3800FF305E050319AC2F0130DE36DD0CDC0C0A
:100F4800DB0C890BA12F0130DF005F08E1079C2F24
:100F58005B08F2005C08F3005D08F4006108DF003C
:100F68005F08F5006208E0006008F6008631862612
:100F780072082000DB007308DC007408DD0008003C
:100F8800740873047204031DD02F75088600870146
:100F98000030C03FC13F080074087F39F600F701F0
:100FA800F635F70D7508860087017608C03F770883
:100FB800C13F730D730D0139F600F70175088600FE
:100FC8008701760881044131770881047508860015
:100FD8008701823081074131FF30813D7F317408BC
:100FE80080393F38F400F313080023000C159030C3
:080FF800220098009901080095
:101E120021000C168C1204303C0090000B160800B6
:101E2200740873047204031908008030F406080071
:101E3200031020008C1E0314031C222F20008C167A
:101E4200080020008C1208008B0180308B000730C4
:101E5200210095002000950110303C0090002100E7
:101E62008C0120008C01A0308B00080021000E1292
:101E720023009D1714303D00A40023009E019E16EE
:101E82001E121E159E17CF309B009C019F011F1230
:101E92009F15080020002008F2002108F300F40139
:101EA2008E30A3002308F500F601863186267208DB
:101EB2002000A0007308A1007408A2000800F60127
:101EC200F701721C682F7408F6077508F73D013098
:101ED200F435F50D890B692F0130F336F20C890BBD
:101EE2006E2F72087304031D622F7708F3007608C1
:101EF200F200080021009D149D187D2F1C08F4009B
:101F0200F50174082000A0007508A10021001B083B
:101F1200F400F50120002008F700F60174087604A9
:101F2200F80075087704F9007808A0007908A10084
:101F32002108F3002008F2000800210022082104F1
:101F420020040319A62F8030A20623082000C00017
:101F5200210024082000C100210025082000C20021
:101F6200210020082000C300210021082000C40015
:101F7200210022082000C5008331272320004008C9
:101F82002100A000200041082100A10020004208F9
:101F92002100A2000800F701F80172087304031976
:101FA200FB2FF901F90AF31BE02F0130F235F30D93
:101FB200890BD72F0130F6007608F907D42F0130AC
:101FC200F735F80D890BE12F73087502031DEB2F0E
:101FD20072087402031CF22F7208F4027308F53BB4
:101FE20077140130F336F20C890BF32F0130F9022A
:101FF200031DE02F7808F3007708F2000800F4349C
:102002004A34483495349534C734C134DC344534C9
:10201200DC346D34C334B3343334403434340134B7
:1020220048349D34B03445340034DA344234003418
:0420320080343F3483
:020000040001F9
:04000E0084C9FBFAAC
:00000001FF
