:0400000080313E28E5
:100008007E14803120007F08F1008B130B1D2428FB
:100018003808803AF00080307002031D15280B3034
:100028003702031C1E2882315B2280312000B70171
:10003800B801232801302000B7070030B83D0B1164
:100048008B1C2E2823009E1C262841309A008B10DA
:1000580020008C16911D37287A037B04031D36284F
:10006800FA01FB019111921992118B177108FF0087
:100078007E10090080314028823180228031B90009
:10008800823181228031BA00823182228031BB00E4
:1000980082318322BC00FA01FB01B101B201B30134
:1000A800B401B501B601B701B8017E102000803156
:1000B800EF2838308131792180310D302000A400BB
:1000C800FB30890B6528A40B652800323930813153
:1000D800792180310D302000A400FB30890B722873
:1000E800A40B7228003214308131792180310D300F
:1000F8002000A400FB30890B7F28A40B7F28003246
:1001080073308131792180310D302000A400FB301B
:10011800890B8C28A40B8C2800325330813179212B
:1001280080310D302000A400FB30890B9928A40BE6
:10013800992800326C308131792180310D302000CE
:10014800A400FB30890BA628A40BA628003238305F
:100158008131792180310D302000A400FB30890BDA
:10016800B328A40BB32800320130813179218031C2
:100178000D302000A400FB30890BC028A40BC02838
:10018800003238308131792180310D302000A400CF
:10019800FB30890BCD28A40BCD2800320C308131DF
:1001A800792180310D302000A400FB30890BDA283A
:1001B800A40BDA28003206308131792180310D30E4
:1001C8002000A400FB30890BE728A40BE7280032A5
:1001D80082313422080072302100990095012300F1
:1001E8008C0180308E00203021008C0008308E0079
:1001F800203024008C0020008C018E011D3021004D
:100208009D0090309E000C303D00A2000C3025006F
:1002180093000A30910040302C009800970102307A
:1002280020009C009A0199309B001C15FF30AF00FC
:100238000030B00082312222803182317222803136
:1002480081319F21803180315D208031823134229B
:10025800803100302000A300A4000030A500A600D3
:100268008131FC21803142302000A3008230A4007B
:100278008131E521803100302000A300A400013045
:10028800A5000030A6008131FC2180314F302000CC
:10029800A3008230A4008131E52180315229200059
:1002A800A2003E30F4000030F5000030F600F70000
:1002B8008131C321813175082000A1007408A00094
:1002C80020082104031D7129403082310F22813119
:1002D8002000220882310F22813182317A22813135
:1002E8001130890B7529000008002000A2003E305B
:1002F800F4000030F5000030F600F7008131C3212A
:10030800813175082000A1007408A000200821048C
:10031800031D9729003082310F22813120002208E5
:1003280082310F22813182317A2281311130890B59
:100338009B29000008006830F200E430890BA229EC
:10034800F20BA229003211303D00A1001030A000AC
:1003580023000E108E1021008E140E1480302400FD
:100368009400283095000C309200940121009115DA
:1003780092158B170B172000911192110800053068
:1003880082316722813124001614053082316722B8
:1003980081310130FA000030FB0074357607240003
:1003A80091007A087B04031DD5292400160E890CB8
:1003B800890C0139F800F9017808F4007908F5008A
:1003C800080020002308840024088500120003196F
:1003D80008002000230884002408850000088131D3
:1003E8005321813101302000A3070030A43DE529C5
:1003F80020003C08AA003B08A9003A08A8003908D0
:10040800A7002535273E8600870101082307803885
:10041800813179210800F400053082316722823168
:100428000130FA000030FB007408240091007A08BB
:100438007B04031D1B2A2400160808008B0180304A
:100448008B000730210095002000950110303C00FA
:10045800900021008C0120008C01A0308B00080046
:1004680001308131792182310D302000A300FB3029
:10047800890B3C2AA30B3C2A003208004834653417
:100488006C346C346F34203477346F3472346C3499
:100498006434213400344634653462342E343134C3
:1004A80039342C3432343034313438340034031095
:1004B80020008C1E0314031C642A20008C160800DC
:1004C80020008C120800F300730824001405F200C1
:1004D80016081F39720403190800682A21000C162F
:1004E8008C1204303C0090000B1608000530823155
:1004F8006722240016150800003400344034003404
:020000040001F9
:04000E0084C9FBFAAC
:00000001FF
